{
  "contractName": "FundingContainer",
  "abi": [
    {
      "anonymous": false,
      "inputs": [
        {
          "indexed": false,
          "internalType": "address",
          "name": "Campaignaddress",
          "type": "address"
        },
        {
          "indexed": false,
          "internalType": "address",
          "name": "campaign_creator_address",
          "type": "address"
        },
        {
          "indexed": false,
          "internalType": "string",
          "name": "title",
          "type": "string"
        },
        {
          "indexed": false,
          "internalType": "string",
          "name": "desc",
          "type": "string"
        }
      ],
      "name": "Projectcreated",
      "type": "event"
    },
    {
      "inputs": [
        {
          "internalType": "string",
          "name": "_tittle",
          "type": "string"
        },
        {
          "internalType": "string",
          "name": "desc",
          "type": "string"
        },
        {
          "internalType": "uint256",
          "name": "fundRequired",
          "type": "uint256"
        },
        {
          "internalType": "uint256",
          "name": "limit",
          "type": "uint256"
        },
        {
          "internalType": "string",
          "name": "name",
          "type": "string"
        }
      ],
      "name": "createCampaign",
      "outputs": [
        {
          "internalType": "bool",
          "name": "",
          "type": "bool"
        }
      ],
      "stateMutability": "nonpayable",
      "type": "function"
    },
    {
      "inputs": [],
      "name": "showCampaigns",
      "outputs": [
        {
          "internalType": "contract FundingCampaign[]",
          "name": "",
          "type": "address[]"
        }
      ],
      "stateMutability": "view",
      "type": "function",
      "constant": true
    }
  ],
  "bytecode": "0x608060405234801561001057600080fd5b506123af806100206000396000f3fe60806040523480156200001157600080fd5b50600436106200003a5760003560e01c80633e4f2f00146200003f578063d4e3dd6f1462000061575b600080fd5b6200004962000097565b604051620000589190620003d4565b60405180910390f35b6200007f6004803603810190620000799190620005a9565b62000127565b6040516200008e9190620006ab565b60405180910390f35b606060008054806020026020016040519081016040528092919081815260200182805480156200011d57602002820191906000526020600020905b8160009054906101000a900473ffffffffffffffffffffffffffffffffffffffff1673ffffffffffffffffffffffffffffffffffffffff1681526020019060010190808311620000d2575b5050505050905090565b6000620001556200014562015180856200024e90919063ffffffff16565b426200026690919063ffffffff16565b925060008686868633876040516200016d906200027e565b6200017e9695949392919062000791565b604051809103906000f0801580156200019b573d6000803e3d6000fd5b5090506000819080600181540180825580915050600190039060005260206000200160009091909190916101000a81548173ffffffffffffffffffffffffffffffffffffffff021916908373ffffffffffffffffffffffffffffffffffffffff1602179055507ff28d7cf7eb684eb279b0e237f2790a2b3a027b4780b69b09a9199c632404bb268133898960405162000238949392919062000838565b60405180910390a1600191505095945050505050565b600081836200025e9190620008c2565b905092915050565b6000818362000276919062000923565b905092915050565b6119f9806200098183390190565b600081519050919050565b600082825260208201905092915050565b6000819050602082019050919050565b600073ffffffffffffffffffffffffffffffffffffffff82169050919050565b6000819050919050565b600062000303620002fd620002f784620002b8565b620002d8565b620002b8565b9050919050565b60006200031782620002e2565b9050919050565b60006200032b826200030a565b9050919050565b6200033d816200031e565b82525050565b600062000351838362000332565b60208301905092915050565b6000602082019050919050565b600062000377826200028c565b62000383818562000297565b93506200039083620002a8565b8060005b83811015620003c7578151620003ab888262000343565b9750620003b8836200035d565b92505060018101905062000394565b5085935050505092915050565b60006020820190508181036000830152620003f081846200036a565b905092915050565b6000604051905090565b600080fd5b600080fd5b600080fd5b600080fd5b6000601f19601f8301169050919050565b7f4e487b7100000000000000000000000000000000000000000000000000000000600052604160045260246000fd5b620004618262000416565b810181811067ffffffffffffffff8211171562000483576200048262000427565b5b80604052505050565b600062000498620003f8565b9050620004a6828262000456565b919050565b600067ffffffffffffffff821115620004c957620004c862000427565b5b620004d48262000416565b9050602081019050919050565b82818337600083830152505050565b6000620005076200050184620004ab565b6200048c565b90508281526020810184848401111562000526576200052562000411565b5b62000533848285620004e1565b509392505050565b600082601f8301126200055357620005526200040c565b5b813562000565848260208601620004f0565b91505092915050565b6000819050919050565b62000583816200056e565b81146200058f57600080fd5b50565b600081359050620005a38162000578565b92915050565b600080600080600060a08688031215620005c857620005c762000402565b5b600086013567ffffffffffffffff811115620005e957620005e862000407565b5b620005f7888289016200053b565b955050602086013567ffffffffffffffff8111156200061b576200061a62000407565b5b62000629888289016200053b565b94505060406200063c8882890162000592565b93505060606200064f8882890162000592565b925050608086013567ffffffffffffffff81111562000673576200067262000407565b5b62000681888289016200053b565b9150509295509295909350565b60008115159050919050565b620006a5816200068e565b82525050565b6000602082019050620006c260008301846200069a565b92915050565b600081519050919050565b600082825260208201905092915050565b60005b8381101562000704578082015181840152602081019050620006e7565b8381111562000714576000848401525b50505050565b60006200072782620006c8565b620007338185620006d3565b935062000745818560208601620006e4565b620007508162000416565b840191505092915050565b62000766816200056e565b82525050565b60006200077982620002b8565b9050919050565b6200078b816200076c565b82525050565b600060c0820190508181036000830152620007ad81896200071a565b90508181036020830152620007c381886200071a565b9050620007d460408301876200075b565b620007e360608301866200075b565b620007f2608083018562000780565b81810360a08301526200080681846200071a565b9050979650505050505050565b60006200082082620002b8565b9050919050565b620008328162000813565b82525050565b60006080820190506200084f600083018762000827565b6200085e602083018662000827565b81810360408301526200087281856200071a565b905081810360608301526200088881846200071a565b905095945050505050565b7f4e487b7100000000000000000000000000000000000000000000000000000000600052601160045260246000fd5b6000620008cf826200056e565b9150620008dc836200056e565b9250817fffffffffffffffffffffffffffffffffffffffffffffffffffffffffffffffff048311821515161562000918576200091762000893565b5b828202905092915050565b600062000930826200056e565b91506200093d836200056e565b9250827fffffffffffffffffffffffffffffffffffffffffffffffffffffffffffffffff0382111562000975576200097462000893565b5b82820190509291505056fe608060405260006008553480156200001657600080fd5b50604051620019f9380380620019f983398181016040528101906200003c919062000435565b85600190805190602001906200005492919062000148565b5084600290805190602001906200006d92919062000148565b5062000090670de0b6b3a7640000856200013060201b620006f91790919060201c565b600381905550826004819055506000600960006101000a81548160ff02191690836002811115620000c657620000c56200052e565b5b0217905550816000806101000a81548173ffffffffffffffffffffffffffffffffffffffff021916908373ffffffffffffffffffffffffffffffffffffffff16021790555080600790805190602001906200012392919062000148565b5050505050505062000652565b600081836200014091906200058c565b905092915050565b82805462000156906200061c565b90600052602060002090601f0160209004810192826200017a5760008555620001c6565b82601f106200019557805160ff1916838001178555620001c6565b82800160010185558215620001c6579182015b82811115620001c5578251825591602001919060010190620001a8565b5b509050620001d59190620001d9565b5090565b5b80821115620001f4576000816000905550600101620001da565b5090565b6000604051905090565b600080fd5b600080fd5b600080fd5b600080fd5b6000601f19601f8301169050919050565b7f4e487b7100000000000000000000000000000000000000000000000000000000600052604160045260246000fd5b620002618262000216565b810181811067ffffffffffffffff8211171562000283576200028262000227565b5b80604052505050565b600062000298620001f8565b9050620002a6828262000256565b919050565b600067ffffffffffffffff821115620002c957620002c862000227565b5b620002d48262000216565b9050602081019050919050565b60005b8381101562000301578082015181840152602081019050620002e4565b8381111562000311576000848401525b50505050565b60006200032e6200032884620002ab565b6200028c565b9050828152602081018484840111156200034d576200034c62000211565b5b6200035a848285620002e1565b509392505050565b600082601f8301126200037a57620003796200020c565b5b81516200038c84826020860162000317565b91505092915050565b6000819050919050565b620003aa8162000395565b8114620003b657600080fd5b50565b600081519050620003ca816200039f565b92915050565b600073ffffffffffffffffffffffffffffffffffffffff82169050919050565b6000620003fd82620003d0565b9050919050565b6200040f81620003f0565b81146200041b57600080fd5b50565b6000815190506200042f8162000404565b92915050565b60008060008060008060c0878903121562000455576200045462000202565b5b600087015167ffffffffffffffff81111562000476576200047562000207565b5b6200048489828a0162000362565b965050602087015167ffffffffffffffff811115620004a857620004a762000207565b5b620004b689828a0162000362565b9550506040620004c989828a01620003b9565b9450506060620004dc89828a01620003b9565b9350506080620004ef89828a016200041e565b92505060a087015167ffffffffffffffff81111562000513576200051262000207565b5b6200052189828a0162000362565b9150509295509295509295565b7f4e487b7100000000000000000000000000000000000000000000000000000000600052602160045260246000fd5b7f4e487b7100000000000000000000000000000000000000000000000000000000600052601160045260246000fd5b6000620005998262000395565b9150620005a68362000395565b9250817fffffffffffffffffffffffffffffffffffffffffffffffffffffffffffffffff0483118215151615620005e257620005e16200055d565b5b828202905092915050565b7f4e487b7100000000000000000000000000000000000000000000000000000000600052602260045260246000fd5b600060028204905060018216806200063557607f821691505b602082108114156200064c576200064b620005ed565b5b50919050565b61139780620006626000396000f3fe6080604052600436106100705760003560e01c80639d4d46c81161004e5780639d4d46c814610108578063ad903d5b14610133578063ed88c68e14610166578063f4c9b1fd1461018457610070565b806306661abd1461007557806310a7fd7b146100a057806340193883146100dd575b600080fd5b34801561008157600080fd5b5061008a6101af565b6040516100979190610bf9565b60405180910390f35b3480156100ac57600080fd5b506100c760048036038101906100c29190610c45565b6101b5565b6040516100d49190610cb3565b60405180910390f35b3480156100e957600080fd5b506100f26101f4565b6040516100ff9190610bf9565b60405180910390f35b34801561011457600080fd5b5061011d6101fa565b60405161012a9190610bf9565b60405180910390f35b34801561013f57600080fd5b50610148610200565b60405161015d99989796959493929190610dde565b60405180910390f35b61016e61043a565b60405161017b9190610e9b565b60405180910390f35b34801561019057600080fd5b506101996106e6565b6040516101a69190610eb6565b60405180910390f35b60085481565b600681815481106101c557600080fd5b906000526020600020016000915054906101000a900473ffffffffffffffffffffffffffffffffffffffff1681565b60035481565b60045481565b60608060008060008060008060606001600260035461023f620151806102314260045461070f90919063ffffffff16565b61072590919063ffffffff16565b60008054906101000a900473ffffffffffffffffffffffffffffffffffffffff16600960009054906101000a900460ff1647600680549050600788805461028590610f00565b80601f01602080910402602001604051908101604052809291908181526020018280546102b190610f00565b80156102fe5780601f106102d3576101008083540402835291602001916102fe565b820191906000526020600020905b8154815290600101906020018083116102e157829003601f168201915b5050505050985087805461031190610f00565b80601f016020809104026020016040519081016040528092919081815260200182805461033d90610f00565b801561038a5780601f1061035f5761010080835404028352916020019161038a565b820191906000526020600020905b81548152906001019060200180831161036d57829003601f168201915b5050505050975080805461039d90610f00565b80601f01602080910402602001604051908101604052809291908181526020018280546103c990610f00565b80156104165780601f106103eb57610100808354040283529160200191610416565b820191906000526020600020905b8154815290600101906020018083116103f957829003601f168201915b50505050509050985098509850985098509850985098509850909192939495969798565b60003373ffffffffffffffffffffffffffffffffffffffff1660008054906101000a900473ffffffffffffffffffffffffffffffffffffffff1673ffffffffffffffffffffffffffffffffffffffff1614156104cb576040517f08c379a00000000000000000000000000000000000000000000000000000000081526004016104c290610fa4565b60405180910390fd5b600060028111156104df576104de610d67565b5b600960009054906101000a900460ff16600281111561050157610500610d67565b5b14610541576040517f08c379a000000000000000000000000000000000000000000000000000000000815260040161053890611010565b60405180910390fd5b67016345785d8a000034101561055657600080fd5b600061056061073b565b90506000600560003373ffffffffffffffffffffffffffffffffffffffff1673ffffffffffffffffffffffffffffffffffffffff16815260200190815260200160002054141561060e576006339080600181540180825580915050600190039060005260206000200160009091909190916101000a81548173ffffffffffffffffffffffffffffffffffffffff021916908373ffffffffffffffffffffffffffffffffffffffff1602179055505b61066034600560003373ffffffffffffffffffffffffffffffffffffffff1673ffffffffffffffffffffffffffffffffffffffff1681526020019081526020016000205461080590919063ffffffff16565b600560003373ffffffffffffffffffffffffffffffffffffffff1673ffffffffffffffffffffffffffffffffffffffff168152602001908152602001600020819055507f1dd7f38a8f22429bde7019c4e857516702c8b587f329398b402f5f0ae6e9af1f3433476040516106d693929190611030565b60405180910390a1801591505090565b600960009054906101000a900460ff1681565b600081836107079190611096565b905092915050565b6000818361071d91906110f0565b905092915050565b600081836107339190611153565b905092915050565b60006008600081548092919061075090611184565b9190505550600354471015801561076957506004544211155b156107aa576001600960006101000a81548160ff0219169083600281111561079457610793610d67565b5b02179055506107a161081b565b60019050610802565b600354471080156107bc575060045442115b156107fd576002600960006101000a81548160ff021916908360028111156107e7576107e6610d67565b5b02179055506107f4610951565b60019050610802565b600090505b90565b6000818361081391906111cd565b905092915050565b6001600281111561082f5761082e610d67565b5b600960009054906101000a900460ff16600281111561085157610850610d67565b5b14610891576040517f08c379a00000000000000000000000000000000000000000000000000000000081526004016108889061126f565b60405180910390fd5b60008054906101000a900473ffffffffffffffffffffffffffffffffffffffff1673ffffffffffffffffffffffffffffffffffffffff166108fc479081150290604051600060405180830381858888f193505050501580156108f7573d6000803e3d6000fd5b507f5e6e2262c29769af29982770e562828070141d2e050cd6ae03cc33697dc316d960008054906101000a900473ffffffffffffffffffffffffffffffffffffffff1660405161094791906112ee565b60405180910390a1565b60028081111561096457610963610d67565b5b600960009054906101000a900460ff16600281111561098657610985610d67565b5b146109c6576040517f08c379a00000000000000000000000000000000000000000000000000000000081526004016109bd9061126f565b60405180910390fd5b60005b600680549050811015610bdd57600060056000600684815481106109f0576109ef611309565b5b9060005260206000200160009054906101000a900473ffffffffffffffffffffffffffffffffffffffff1673ffffffffffffffffffffffffffffffffffffffff1673ffffffffffffffffffffffffffffffffffffffff16815260200190815260200160002054905060006005600060068581548110610a7257610a71611309565b5b9060005260206000200160009054906101000a900473ffffffffffffffffffffffffffffffffffffffff1673ffffffffffffffffffffffffffffffffffffffff1673ffffffffffffffffffffffffffffffffffffffff1681526020019081526020016000208190555060068281548110610aef57610aee611309565b5b9060005260206000200160009054906101000a900473ffffffffffffffffffffffffffffffffffffffff1673ffffffffffffffffffffffffffffffffffffffff166108fc829081150290604051600060405180830381858888f19350505050158015610b5f573d6000803e3d6000fd5b507fdf8ce2e6d4962279143212be2ef157320c4f005162fb1f69400169f4daca22b560068381548110610b9557610b94611309565b5b9060005260206000200160009054906101000a900473ffffffffffffffffffffffffffffffffffffffff1682604051610bcf929190611338565b60405180910390a1506109c9565b50565b6000819050919050565b610bf381610be0565b82525050565b6000602082019050610c0e6000830184610bea565b92915050565b600080fd5b610c2281610be0565b8114610c2d57600080fd5b50565b600081359050610c3f81610c19565b92915050565b600060208284031215610c5b57610c5a610c14565b5b6000610c6984828501610c30565b91505092915050565b600073ffffffffffffffffffffffffffffffffffffffff82169050919050565b6000610c9d82610c72565b9050919050565b610cad81610c92565b82525050565b6000602082019050610cc86000830184610ca4565b92915050565b600081519050919050565b600082825260208201905092915050565b60005b83811015610d08578082015181840152602081019050610ced565b83811115610d17576000848401525b50505050565b6000601f19601f8301169050919050565b6000610d3982610cce565b610d438185610cd9565b9350610d53818560208601610cea565b610d5c81610d1d565b840191505092915050565b7f4e487b7100000000000000000000000000000000000000000000000000000000600052602160045260246000fd5b60038110610da757610da6610d67565b5b50565b6000819050610db882610d96565b919050565b6000610dc882610daa565b9050919050565b610dd881610dbd565b82525050565b6000610120820190508181036000830152610df9818c610d2e565b90508181036020830152610e0d818b610d2e565b9050610e1c604083018a610bea565b610e296060830189610bea565b610e366080830188610ca4565b610e4360a0830187610dcf565b610e5060c0830186610bea565b610e5d60e0830185610bea565b818103610100830152610e708184610d2e565b90509a9950505050505050505050565b60008115159050919050565b610e9581610e80565b82525050565b6000602082019050610eb06000830184610e8c565b92915050565b6000602082019050610ecb6000830184610dcf565b92915050565b7f4e487b7100000000000000000000000000000000000000000000000000000000600052602260045260246000fd5b60006002820490506001821680610f1857607f821691505b60208210811415610f2c57610f2b610ed1565b5b50919050565b7f63616d706169676e2063726561746f722063616e206e6f74207061727469636960008201527f7061746520696e20646f6e6174696f6e00000000000000000000000000000000602082015250565b6000610f8e603083610cd9565b9150610f9982610f32565b604082019050919050565b60006020820190508181036000830152610fbd81610f81565b9050919050565b7f63616d706169676e206973206e6f742072756e6e696e67000000000000000000600082015250565b6000610ffa601783610cd9565b915061100582610fc4565b602082019050919050565b6000602082019050818103600083015261102981610fed565b9050919050565b60006060820190506110456000830186610bea565b6110526020830185610ca4565b61105f6040830184610bea565b949350505050565b7f4e487b7100000000000000000000000000000000000000000000000000000000600052601160045260246000fd5b60006110a182610be0565b91506110ac83610be0565b9250817fffffffffffffffffffffffffffffffffffffffffffffffffffffffffffffffff04831182151516156110e5576110e4611067565b5b828202905092915050565b60006110fb82610be0565b915061110683610be0565b92508282101561111957611118611067565b5b828203905092915050565b7f4e487b7100000000000000000000000000000000000000000000000000000000600052601260045260246000fd5b600061115e82610be0565b915061116983610be0565b92508261117957611178611124565b5b828204905092915050565b600061118f82610be0565b91507fffffffffffffffffffffffffffffffffffffffffffffffffffffffffffffffff8214156111c2576111c1611067565b5b600182019050919050565b60006111d882610be0565b91506111e383610be0565b9250827fffffffffffffffffffffffffffffffffffffffffffffffffffffffffffffffff0382111561121857611217611067565b5b828201905092915050565b7f63616d706169676e206973206e6f742066696e69736865642079657400000000600082015250565b6000611259601c83610cd9565b915061126482611223565b602082019050919050565b600060208201905081810360008301526112888161124c565b9050919050565b6000819050919050565b60006112b46112af6112aa84610c72565b61128f565b610c72565b9050919050565b60006112c682611299565b9050919050565b60006112d8826112bb565b9050919050565b6112e8816112cd565b82525050565b600060208201905061130360008301846112df565b92915050565b7f4e487b7100000000000000000000000000000000000000000000000000000000600052603260045260246000fd5b600060408201905061134d6000830185610ca4565b61135a6020830184610bea565b939250505056fea26469706673582212209fc969856f585d8dddcff9431524ddbb1e97e689c2b65fb0472190785f898e0964736f6c634300080b0033a26469706673582212208c0541d14c78002873635b978dd0ae2f852d4c7b225b00e3901148c9a5ea09a464736f6c634300080b0033",
  "immutableReferences": {},
  "source": "// SPDX-License-Identifier: Arno\npragma solidity ^0.8.0;\nimport \"../client/node_modules/@openzeppelin/contracts/utils/math/SafeMath.sol\";\nimport \"./FundingCampaign.sol\";\n\ncontract FundingContainer{\n    using SafeMath for uint;\n    FundingCampaign [] project;\n\n    event Projectcreated(address Campaignaddress, address campaign_creator_address, string title , string desc );\n\n\n    //create campaign function\n\n    function createCampaign (string memory _tittle, string memory desc , uint fundRequired , uint limit ,string memory name)  public returns(bool)\n    {\n        limit= block.timestamp.add(limit.mul(1 days)); \n\n        FundingCampaign  campaign = new FundingCampaign(_tittle, desc , fundRequired, limit , payable(msg.sender) , name);\n            project.push(campaign);\n        \n        emit Projectcreated(address(campaign),msg.sender,_tittle,desc);\n        return true;\n    }\n\n    //return array of campaign objects\n\n    function showCampaigns() external view returns(FundingCampaign[] memory) {\n        return project;\n    }\n\n}\n\n",
  "sourcePath": "C:\\Users\\aryan\\blockchain\\FundMe\\contracts\\FundingContainer.sol",
  "compiler": {
    "name": "solc",
    "version": "0.8.11+commit.d7f03943.Emscripten.clang"
  },
  "schemaVersion": "3.4.4",
  "updatedAt": "2022-05-20T06:30:20.816Z",
  "networkType": "ethereum",
  "devdoc": {
    "kind": "dev",
    "methods": {},
    "version": 1
  },
  "userdoc": {
    "kind": "user",
    "methods": {},
    "version": 1
  }
}