{
  "contractName": "FundingCampaign",
  "abi": [
    {
      "inputs": [
        {
          "internalType": "string",
          "name": "_tittle",
          "type": "string"
        },
        {
          "internalType": "string",
          "name": "_desc",
          "type": "string"
        },
        {
          "internalType": "uint256",
          "name": "_fundRequired",
          "type": "uint256"
        },
        {
          "internalType": "uint256",
          "name": "_limit",
          "type": "uint256"
        },
        {
          "internalType": "address payable",
          "name": "Admin",
          "type": "address"
        },
        {
          "internalType": "string",
          "name": "_name",
          "type": "string"
        }
      ],
      "stateMutability": "nonpayable",
      "type": "constructor"
    },
    {
      "anonymous": false,
      "inputs": [
        {
          "indexed": false,
          "internalType": "uint256",
          "name": "donationValue",
          "type": "uint256"
        },
        {
          "indexed": false,
          "internalType": "address",
          "name": "sender",
          "type": "address"
        },
        {
          "indexed": false,
          "internalType": "uint256",
          "name": "accountBalance",
          "type": "uint256"
        }
      ],
      "name": "contributionMade",
      "type": "event"
    },
    {
      "anonymous": false,
      "inputs": [
        {
          "indexed": false,
          "internalType": "address",
          "name": "reciepent",
          "type": "address"
        }
      ],
      "name": "creatorPaid",
      "type": "event"
    },
    {
      "anonymous": false,
      "inputs": [
        {
          "indexed": false,
          "internalType": "address",
          "name": "contributor",
          "type": "address"
        },
        {
          "indexed": false,
          "internalType": "uint256",
          "name": "donationValue",
          "type": "uint256"
        }
      ],
      "name": "refundPaid",
      "type": "event"
    },
    {
      "inputs": [],
      "name": "campaignState",
      "outputs": [
        {
          "internalType": "enum FundingCampaign.state",
          "name": "",
          "type": "uint8"
        }
      ],
      "stateMutability": "view",
      "type": "function"
    },
    {
      "inputs": [],
      "name": "count",
      "outputs": [
        {
          "internalType": "uint256",
          "name": "",
          "type": "uint256"
        }
      ],
      "stateMutability": "view",
      "type": "function"
    },
    {
      "inputs": [],
      "name": "goal",
      "outputs": [
        {
          "internalType": "uint256",
          "name": "",
          "type": "uint256"
        }
      ],
      "stateMutability": "view",
      "type": "function"
    },
    {
      "inputs": [
        {
          "internalType": "uint256",
          "name": "",
          "type": "uint256"
        }
      ],
      "name": "ledger",
      "outputs": [
        {
          "internalType": "address",
          "name": "",
          "type": "address"
        }
      ],
      "stateMutability": "view",
      "type": "function"
    },
    {
      "inputs": [],
      "name": "timeconstraint",
      "outputs": [
        {
          "internalType": "uint256",
          "name": "",
          "type": "uint256"
        }
      ],
      "stateMutability": "view",
      "type": "function"
    },
    {
      "inputs": [],
      "name": "donate",
      "outputs": [
        {
          "internalType": "bool",
          "name": "",
          "type": "bool"
        }
      ],
      "stateMutability": "payable",
      "type": "function"
    },
    {
      "inputs": [],
      "name": "showDetails",
      "outputs": [
        {
          "internalType": "string",
          "name": "",
          "type": "string"
        },
        {
          "internalType": "string",
          "name": "",
          "type": "string"
        },
        {
          "internalType": "uint256",
          "name": "",
          "type": "uint256"
        },
        {
          "internalType": "uint256",
          "name": "",
          "type": "uint256"
        },
        {
          "internalType": "address",
          "name": "",
          "type": "address"
        },
        {
          "internalType": "enum FundingCampaign.state",
          "name": "",
          "type": "uint8"
        },
        {
          "internalType": "uint256",
          "name": "",
          "type": "uint256"
        },
        {
          "internalType": "uint256",
          "name": "",
          "type": "uint256"
        },
        {
          "internalType": "string",
          "name": "",
          "type": "string"
        }
      ],
      "stateMutability": "view",
      "type": "function"
    }
  ],
  "bytecode": "0x608060405260006008553480156200001657600080fd5b50604051620018bf380380620018bf83398181016040528101906200003c9190620003fc565b8560019080519060200190620000549291906200010f565b5084600290805190602001906200006d9291906200010f565b5083600381905550826004819055506000600960006101000a81548160ff02191690836002811115620000a557620000a4620004f5565b5b0217905550816000806101000a81548173ffffffffffffffffffffffffffffffffffffffff021916908373ffffffffffffffffffffffffffffffffffffffff1602179055508060079080519060200190620001029291906200010f565b5050505050505062000589565b8280546200011d9062000553565b90600052602060002090601f0160209004810192826200014157600085556200018d565b82601f106200015c57805160ff19168380011785556200018d565b828001600101855582156200018d579182015b828111156200018c5782518255916020019190600101906200016f565b5b5090506200019c9190620001a0565b5090565b5b80821115620001bb576000816000905550600101620001a1565b5090565b6000604051905090565b600080fd5b600080fd5b600080fd5b600080fd5b6000601f19601f8301169050919050565b7f4e487b7100000000000000000000000000000000000000000000000000000000600052604160045260246000fd5b6200022882620001dd565b810181811067ffffffffffffffff821117156200024a5762000249620001ee565b5b80604052505050565b60006200025f620001bf565b90506200026d82826200021d565b919050565b600067ffffffffffffffff82111562000290576200028f620001ee565b5b6200029b82620001dd565b9050602081019050919050565b60005b83811015620002c8578082015181840152602081019050620002ab565b83811115620002d8576000848401525b50505050565b6000620002f5620002ef8462000272565b62000253565b905082815260208101848484011115620003145762000313620001d8565b5b62000321848285620002a8565b509392505050565b600082601f830112620003415762000340620001d3565b5b815162000353848260208601620002de565b91505092915050565b6000819050919050565b62000371816200035c565b81146200037d57600080fd5b50565b600081519050620003918162000366565b92915050565b600073ffffffffffffffffffffffffffffffffffffffff82169050919050565b6000620003c48262000397565b9050919050565b620003d681620003b7565b8114620003e257600080fd5b50565b600081519050620003f681620003cb565b92915050565b60008060008060008060c087890312156200041c576200041b620001c9565b5b600087015167ffffffffffffffff8111156200043d576200043c620001ce565b5b6200044b89828a0162000329565b965050602087015167ffffffffffffffff8111156200046f576200046e620001ce565b5b6200047d89828a0162000329565b95505060406200049089828a0162000380565b9450506060620004a389828a0162000380565b9350506080620004b689828a01620003e5565b92505060a087015167ffffffffffffffff811115620004da57620004d9620001ce565b5b620004e889828a0162000329565b9150509295509295509295565b7f4e487b7100000000000000000000000000000000000000000000000000000000600052602160045260246000fd5b7f4e487b7100000000000000000000000000000000000000000000000000000000600052602260045260246000fd5b600060028204905060018216806200056c57607f821691505b6020821081141562000583576200058262000524565b5b50919050565b61132680620005996000396000f3fe6080604052600436106100705760003560e01c80639d4d46c81161004e5780639d4d46c814610108578063ad903d5b14610133578063ed88c68e14610166578063f4c9b1fd1461018457610070565b806306661abd1461007557806310a7fd7b146100a057806340193883146100dd575b600080fd5b34801561008157600080fd5b5061008a6101af565b6040516100979190610be2565b60405180910390f35b3480156100ac57600080fd5b506100c760048036038101906100c29190610c2e565b6101b5565b6040516100d49190610c9c565b60405180910390f35b3480156100e957600080fd5b506100f26101f4565b6040516100ff9190610be2565b60405180910390f35b34801561011457600080fd5b5061011d6101fa565b60405161012a9190610be2565b60405180910390f35b34801561013f57600080fd5b50610148610200565b60405161015d99989796959493929190610dc7565b60405180910390f35b61016e61043a565b60405161017b9190610e84565b60405180910390f35b34801561019057600080fd5b506101996106e5565b6040516101a69190610e9f565b60405180910390f35b60085481565b600681815481106101c557600080fd5b906000526020600020016000915054906101000a900473ffffffffffffffffffffffffffffffffffffffff1681565b60035481565b60045481565b60608060008060008060008060606001600260035461023f62015180610231426004546106f890919063ffffffff16565b61070e90919063ffffffff16565b60008054906101000a900473ffffffffffffffffffffffffffffffffffffffff16600960009054906101000a900460ff1647600680549050600788805461028590610ee9565b80601f01602080910402602001604051908101604052809291908181526020018280546102b190610ee9565b80156102fe5780601f106102d3576101008083540402835291602001916102fe565b820191906000526020600020905b8154815290600101906020018083116102e157829003601f168201915b5050505050985087805461031190610ee9565b80601f016020809104026020016040519081016040528092919081815260200182805461033d90610ee9565b801561038a5780601f1061035f5761010080835404028352916020019161038a565b820191906000526020600020905b81548152906001019060200180831161036d57829003601f168201915b5050505050975080805461039d90610ee9565b80601f01602080910402602001604051908101604052809291908181526020018280546103c990610ee9565b80156104165780601f106103eb57610100808354040283529160200191610416565b820191906000526020600020905b8154815290600101906020018083116103f957829003601f168201915b50505050509050985098509850985098509850985098509850909192939495969798565b60003373ffffffffffffffffffffffffffffffffffffffff1660008054906101000a900473ffffffffffffffffffffffffffffffffffffffff1673ffffffffffffffffffffffffffffffffffffffff1614156104cb576040517f08c379a00000000000000000000000000000000000000000000000000000000081526004016104c290610f8d565b60405180910390fd5b600060028111156104df576104de610d50565b5b600960009054906101000a900460ff16600281111561050157610500610d50565b5b14610541576040517f08c379a000000000000000000000000000000000000000000000000000000000815260040161053890610ff9565b60405180910390fd5b66038d7ea4c6800034101561055557600080fd5b600061055f610724565b90506000600560003373ffffffffffffffffffffffffffffffffffffffff1673ffffffffffffffffffffffffffffffffffffffff16815260200190815260200160002054141561060d576006339080600181540180825580915050600190039060005260206000200160009091909190916101000a81548173ffffffffffffffffffffffffffffffffffffffff021916908373ffffffffffffffffffffffffffffffffffffffff1602179055505b61065f34600560003373ffffffffffffffffffffffffffffffffffffffff1673ffffffffffffffffffffffffffffffffffffffff168152602001908152602001600020546107ee90919063ffffffff16565b600560003373ffffffffffffffffffffffffffffffffffffffff1673ffffffffffffffffffffffffffffffffffffffff168152602001908152602001600020819055507f1dd7f38a8f22429bde7019c4e857516702c8b587f329398b402f5f0ae6e9af1f3433476040516106d593929190611019565b60405180910390a1801591505090565b600960009054906101000a900460ff1681565b60008183610706919061107f565b905092915050565b6000818361071c91906110e2565b905092915050565b60006008600081548092919061073990611113565b9190505550600354471015801561075257506004544211155b15610793576001600960006101000a81548160ff0219169083600281111561077d5761077c610d50565b5b021790555061078a610804565b600190506107eb565b600354471080156107a5575060045442115b156107e6576002600960006101000a81548160ff021916908360028111156107d0576107cf610d50565b5b02179055506107dd61093a565b600190506107eb565b600090505b90565b600081836107fc919061115c565b905092915050565b6001600281111561081857610817610d50565b5b600960009054906101000a900460ff16600281111561083a57610839610d50565b5b1461087a576040517f08c379a0000000000000000000000000000000000000000000000000000000008152600401610871906111fe565b60405180910390fd5b60008054906101000a900473ffffffffffffffffffffffffffffffffffffffff1673ffffffffffffffffffffffffffffffffffffffff166108fc479081150290604051600060405180830381858888f193505050501580156108e0573d6000803e3d6000fd5b507f5e6e2262c29769af29982770e562828070141d2e050cd6ae03cc33697dc316d960008054906101000a900473ffffffffffffffffffffffffffffffffffffffff16604051610930919061127d565b60405180910390a1565b60028081111561094d5761094c610d50565b5b600960009054906101000a900460ff16600281111561096f5761096e610d50565b5b146109af576040517f08c379a00000000000000000000000000000000000000000000000000000000081526004016109a6906111fe565b60405180910390fd5b60005b600680549050811015610bc657600060056000600684815481106109d9576109d8611298565b5b9060005260206000200160009054906101000a900473ffffffffffffffffffffffffffffffffffffffff1673ffffffffffffffffffffffffffffffffffffffff1673ffffffffffffffffffffffffffffffffffffffff16815260200190815260200160002054905060006005600060068581548110610a5b57610a5a611298565b5b9060005260206000200160009054906101000a900473ffffffffffffffffffffffffffffffffffffffff1673ffffffffffffffffffffffffffffffffffffffff1673ffffffffffffffffffffffffffffffffffffffff1681526020019081526020016000208190555060068281548110610ad857610ad7611298565b5b9060005260206000200160009054906101000a900473ffffffffffffffffffffffffffffffffffffffff1673ffffffffffffffffffffffffffffffffffffffff166108fc829081150290604051600060405180830381858888f19350505050158015610b48573d6000803e3d6000fd5b507fdf8ce2e6d4962279143212be2ef157320c4f005162fb1f69400169f4daca22b560068381548110610b7e57610b7d611298565b5b9060005260206000200160009054906101000a900473ffffffffffffffffffffffffffffffffffffffff1682604051610bb89291906112c7565b60405180910390a1506109b2565b50565b6000819050919050565b610bdc81610bc9565b82525050565b6000602082019050610bf76000830184610bd3565b92915050565b600080fd5b610c0b81610bc9565b8114610c1657600080fd5b50565b600081359050610c2881610c02565b92915050565b600060208284031215610c4457610c43610bfd565b5b6000610c5284828501610c19565b91505092915050565b600073ffffffffffffffffffffffffffffffffffffffff82169050919050565b6000610c8682610c5b565b9050919050565b610c9681610c7b565b82525050565b6000602082019050610cb16000830184610c8d565b92915050565b600081519050919050565b600082825260208201905092915050565b60005b83811015610cf1578082015181840152602081019050610cd6565b83811115610d00576000848401525b50505050565b6000601f19601f8301169050919050565b6000610d2282610cb7565b610d2c8185610cc2565b9350610d3c818560208601610cd3565b610d4581610d06565b840191505092915050565b7f4e487b7100000000000000000000000000000000000000000000000000000000600052602160045260246000fd5b60038110610d9057610d8f610d50565b5b50565b6000819050610da182610d7f565b919050565b6000610db182610d93565b9050919050565b610dc181610da6565b82525050565b6000610120820190508181036000830152610de2818c610d17565b90508181036020830152610df6818b610d17565b9050610e05604083018a610bd3565b610e126060830189610bd3565b610e1f6080830188610c8d565b610e2c60a0830187610db8565b610e3960c0830186610bd3565b610e4660e0830185610bd3565b818103610100830152610e598184610d17565b90509a9950505050505050505050565b60008115159050919050565b610e7e81610e69565b82525050565b6000602082019050610e996000830184610e75565b92915050565b6000602082019050610eb46000830184610db8565b92915050565b7f4e487b7100000000000000000000000000000000000000000000000000000000600052602260045260246000fd5b60006002820490506001821680610f0157607f821691505b60208210811415610f1557610f14610eba565b5b50919050565b7f63616d706169676e2063726561746f722063616e206e6f74207061727469636960008201527f7061746520696e20646f6e6174696f6e00000000000000000000000000000000602082015250565b6000610f77603083610cc2565b9150610f8282610f1b565b604082019050919050565b60006020820190508181036000830152610fa681610f6a565b9050919050565b7f63616d706169676e206973206e6f742072756e6e696e67000000000000000000600082015250565b6000610fe3601783610cc2565b9150610fee82610fad565b602082019050919050565b6000602082019050818103600083015261101281610fd6565b9050919050565b600060608201905061102e6000830186610bd3565b61103b6020830185610c8d565b6110486040830184610bd3565b949350505050565b7f4e487b7100000000000000000000000000000000000000000000000000000000600052601160045260246000fd5b600061108a82610bc9565b915061109583610bc9565b9250828210156110a8576110a7611050565b5b828203905092915050565b7f4e487b7100000000000000000000000000000000000000000000000000000000600052601260045260246000fd5b60006110ed82610bc9565b91506110f883610bc9565b925082611108576111076110b3565b5b828204905092915050565b600061111e82610bc9565b91507fffffffffffffffffffffffffffffffffffffffffffffffffffffffffffffffff82141561115157611150611050565b5b600182019050919050565b600061116782610bc9565b915061117283610bc9565b9250827fffffffffffffffffffffffffffffffffffffffffffffffffffffffffffffffff038211156111a7576111a6611050565b5b828201905092915050565b7f63616d706169676e206973206e6f742066696e69736865642079657400000000600082015250565b60006111e8601c83610cc2565b91506111f3826111b2565b602082019050919050565b60006020820190508181036000830152611217816111db565b9050919050565b6000819050919050565b600061124361123e61123984610c5b565b61121e565b610c5b565b9050919050565b600061125582611228565b9050919050565b60006112678261124a565b9050919050565b6112778161125c565b82525050565b6000602082019050611292600083018461126e565b92915050565b7f4e487b7100000000000000000000000000000000000000000000000000000000600052603260045260246000fd5b60006040820190506112dc6000830185610c8d565b6112e96020830184610bd3565b939250505056fea26469706673582212203d99011c9a4264b7503cd183a4bb1efc090f3e4ef4132532e5e560e0117f120364736f6c634300080b0033",
  "immutableReferences": {},
  "source": "// SPDX-License-Identifier: Arno\r\npragma solidity ^0.8.0;\r\nimport \"../client/node_modules/@openzeppelin/contracts/utils/math/SafeMath.sol\";\r\n\r\ncontract FundingCampaign{\r\n    address payable owner;\r\n    string tittle;\r\n    string desc;\r\n    uint public goal;\r\n    uint public  timeconstraint;\r\n    mapping(address=> uint) contribution;\r\n    address [] public ledger;\r\n    string name;\r\n\r\n    uint public  count=0;\r\n\r\n    enum state{started,finished , expired}\r\n    state public campaignState;\r\n\r\n    using SafeMath for uint;\r\n    constructor(string memory  _tittle, string memory _desc,uint _fundRequired, uint _limit ,address payable Admin , string memory _name){\r\n\r\n        tittle=_tittle;\r\n        desc=_desc;\r\n        goal=_fundRequired;\r\n        timeconstraint=_limit;\r\n        campaignState = state.started;\r\n        owner = Admin;\r\n        name=_name;\r\n    }\r\n\r\n    event creatorPaid(address reciepent );\r\n    event contributionMade(uint donationValue,address sender , uint accountBalance);\r\n    event refundPaid(address contributor, uint donationValue);\r\n  \r\n\r\n    modifier checkAdmin(){\r\n         require(owner!=msg.sender,\"campaign creator can not participate in donation\");\r\n         _;\r\n     }\r\n\r\n    modifier checkstate(){\r\n       require(campaignState==state.started,\"campaign is not running\");\r\n       _;\r\n    }\r\n\r\n\r\n    function isItstopped() internal returns (bool){\r\n        count++;\r\n        if(address(this).balance>=goal && block.timestamp<= timeconstraint){\r\n         campaignState = state.finished;\r\n         payout();\r\n        return true;\r\n        }\r\n        else if(address(this).balance<goal && block.timestamp> timeconstraint)\r\n        {\r\n            campaignState =state.expired;\r\n            refund();\r\n            return true;\r\n        }\r\n       return false;\r\n    }\r\n\r\n    function payout() internal{\r\n        require(campaignState==state.finished,\"campaign is not finished yet\");\r\n        owner.transfer(address(this).balance);\r\n        emit creatorPaid(owner);\r\n\r\n    }\r\n\r\n    function refund() internal {\r\n         require(campaignState==state.expired,\"campaign is not finished yet\");\r\n\r\n         uint x=0;\r\n        while(x<ledger.length){\r\n            uint donationValue= contribution[ledger[x]];\r\n            contribution[ledger[x]]=0;\r\n           payable( ledger[x]).transfer(donationValue);\r\n            emit refundPaid(ledger[x],donationValue);\r\n        }\r\n       \r\n\r\n    }\r\n\r\n    function donate() payable public checkAdmin checkstate returns (bool){\r\n        require(msg.value>= 0.001 ether);\r\n\r\n        bool value= isItstopped();\r\n\r\n        if(contribution[msg.sender]==0)\r\n            ledger.push(msg.sender);\r\n\r\n        contribution[msg.sender]=contribution[msg.sender].add(msg.value);\r\n        \r\n        emit contributionMade(msg.value,msg.sender,address(this).balance);\r\n        return !value;\r\n    }\r\n\r\n\r\n    function showDetails() public view returns(string memory, string memory, uint , uint , address, state , uint,uint ,string memory ){\r\n\r\n        return(tittle,desc,goal,(timeconstraint.sub(block.timestamp).div(1 days)),owner,campaignState,address(this).balance, ledger.length ,name);\r\n\r\n    }\r\n\r\n\r\n}",
  "sourcePath": "C:\\Users\\aryan\\blockchain\\FundMe\\contracts\\FundingCampaign.sol",
  "compiler": {
    "name": "solc",
    "version": "0.8.11+commit.d7f03943.Emscripten.clang"
  },
  "schemaVersion": "3.4.4",
  "updatedAt": "2022-06-21T18:00:39.857Z",
  "devdoc": {
    "kind": "dev",
    "methods": {},
    "version": 1
  },
  "userdoc": {
    "kind": "user",
    "methods": {},
    "version": 1
  }
}